{
  "_format": "hh-sol-artifact-1",
  "contractName": "ZkCreditScore",
  "sourceName": "contracts/ZkCreditScore.sol",
  "abi": [
    {
      "inputs": [],
      "stateMutability": "nonpayable",
      "type": "constructor"
    },
    {
      "anonymous": false,
      "inputs": [
        {
          "indexed": true,
          "internalType": "address",
          "name": "_requester",
          "type": "address"
        },
        {
          "indexed": true,
          "internalType": "uint256",
          "name": "_score",
          "type": "uint256"
        }
      ],
      "name": "LoanRequestCreated",
      "type": "event"
    },
    {
      "anonymous": false,
      "inputs": [
        {
          "indexed": true,
          "internalType": "address",
          "name": "previousOwner",
          "type": "address"
        },
        {
          "indexed": true,
          "internalType": "address",
          "name": "newOwner",
          "type": "address"
        }
      ],
      "name": "OwnershipTransferred",
      "type": "event"
    },
    {
      "inputs": [
        {
          "internalType": "address",
          "name": "requester",
          "type": "address"
        },
        {
          "internalType": "string[]",
          "name": "proofs",
          "type": "string[]"
        },
        {
          "internalType": "uint256",
          "name": "score",
          "type": "uint256"
        }
      ],
      "name": "addLoanRequest",
      "outputs": [],
      "stateMutability": "nonpayable",
      "type": "function"
    },
    {
      "inputs": [],
      "name": "getLoanRequests",
      "outputs": [
        {
          "components": [
            {
              "internalType": "address",
              "name": "requester",
              "type": "address"
            },
            {
              "internalType": "string[]",
              "name": "proofs",
              "type": "string[]"
            },
            {
              "internalType": "uint256",
              "name": "score",
              "type": "uint256"
            }
          ],
          "internalType": "struct ZkCreditScore.LoanRequest[]",
          "name": "",
          "type": "tuple[]"
        }
      ],
      "stateMutability": "view",
      "type": "function"
    },
    {
      "inputs": [
        {
          "internalType": "uint256",
          "name": "",
          "type": "uint256"
        }
      ],
      "name": "loanRequests",
      "outputs": [
        {
          "internalType": "address",
          "name": "requester",
          "type": "address"
        },
        {
          "internalType": "uint256",
          "name": "score",
          "type": "uint256"
        }
      ],
      "stateMutability": "view",
      "type": "function"
    },
    {
      "inputs": [],
      "name": "owner",
      "outputs": [
        {
          "internalType": "address",
          "name": "",
          "type": "address"
        }
      ],
      "stateMutability": "view",
      "type": "function"
    },
    {
      "inputs": [],
      "name": "renounceOwnership",
      "outputs": [],
      "stateMutability": "nonpayable",
      "type": "function"
    },
    {
      "inputs": [
        {
          "internalType": "address",
          "name": "newOwner",
          "type": "address"
        }
      ],
      "name": "transferOwnership",
      "outputs": [],
      "stateMutability": "nonpayable",
      "type": "function"
    }
  ],
  "bytecode": "0x608060405234801561001057600080fd5b5061001a3361001f565b61006f565b600080546001600160a01b038381166001600160a01b0319831681178455604051919092169283917f8be0079c531659141344cd1fd0a4f28419497f9722a3daafe3b4186f6b6457e09190a35050565b610a1d8061007e6000396000f3fe608060405234801561001057600080fd5b50600436106100625760003560e01c80631ae7e43414610067578063715018a61461007c5780638da5cb5b14610084578063d1b332f4146100a4578063e7cc782f146100d6578063f2fde38b146100eb575b600080fd5b61007a61007536600461062d565b6100fe565b005b61007a610251565b6000546040516001600160a01b0390911681526020015b60405180910390f35b6100b76100b2366004610760565b610265565b604080516001600160a01b03909316835260208301919091520161009b565b6100de61029d565b60405161009b9190610779565b61007a6100f936600461087c565b6103ea565b610106610463565b620f424081111561015e5760405162461bcd60e51b815260206004820152601c60248201527f53636f726520697320626967676572207468616e20313030303030300000000060448201526064015b60405180910390fd5b60405181906001600160a01b038516907fe5d7988e6522eed92cb682f9eae911a6cc15dbd3cc25f515149aaf2f65c171ea90600090a3604080516060810182526001600160a01b038581168252602080830186815293830185905260018054808201825560009190915283517fb10e2d527612073b26eecdfd717e6a320cf44b4afac2b0732d9fcbe2b7fa0cf6600390920291820180546001600160a01b03191691909416178355935180519394929361023f937fb10e2d527612073b26eecdfd717e6a320cf44b4afac2b0732d9fcbe2b7fa0cf70192919091019061050d565b50604082015181600201555050505050565b610259610463565b61026360006104bd565b565b6001818154811061027557600080fd5b6000918252602090912060039091020180546002909101546001600160a01b03909116915082565b60606001805480602002602001604051908101604052809291908181526020016000905b828210156103e15760008481526020808220604080516060810182526003870290920180546001600160a01b03168352600181018054835181870281018701909452808452939591948681019491929084015b828210156103c05783829060005260206000200180546103339061089e565b80601f016020809104026020016040519081016040528092919081815260200182805461035f9061089e565b80156103ac5780601f10610381576101008083540402835291602001916103ac565b820191906000526020600020905b81548152906001019060200180831161038f57829003601f168201915b505050505081526020019060010190610314565b505050508152602001600282015481525050815260200190600101906102c1565b50505050905090565b6103f2610463565b6001600160a01b0381166104575760405162461bcd60e51b815260206004820152602660248201527f4f776e61626c653a206e6577206f776e657220697320746865207a65726f206160448201526564647265737360d01b6064820152608401610155565b610460816104bd565b50565b6000546001600160a01b031633146102635760405162461bcd60e51b815260206004820181905260248201527f4f776e61626c653a2063616c6c6572206973206e6f7420746865206f776e65726044820152606401610155565b600080546001600160a01b038381166001600160a01b0319831681178455604051919092169283917f8be0079c531659141344cd1fd0a4f28419497f9722a3daafe3b4186f6b6457e09190a35050565b828054828255906000526020600020908101928215610553579160200282015b8281111561055357825182906105439082610927565b509160200191906001019061052d565b5061055f929150610563565b5090565b8082111561055f5760006105778282610580565b50600101610563565b50805461058c9061089e565b6000825580601f1061059c575050565b601f01602090049060005260206000209081019061046091905b8082111561055f57600081556001016105b6565b80356001600160a01b03811681146105e157600080fd5b919050565b634e487b7160e01b600052604160045260246000fd5b604051601f8201601f1916810167ffffffffffffffff81118282101715610625576106256105e6565b604052919050565b60008060006060848603121561064257600080fd5b61064b846105ca565b925060208085013567ffffffffffffffff8082111561066957600080fd5b818701915087601f83011261067d57600080fd5b81358181111561068f5761068f6105e6565b8060051b61069e8582016105fc565b918252838101850191858101908b8411156106b857600080fd5b86860192505b83831015610749578235858111156106d65760008081fd5b8601603f81018d136106e85760008081fd5b878101356040878211156106fe576106fe6105e6565b610710601f8301601f19168b016105fc565b8281528f828486010111156107255760008081fd5b828285018c83013760009281018b01929092525083525091860191908601906106be565b989b989a5050505060409690960135955050505050565b60006020828403121561077257600080fd5b5035919050565b6000602080830181845280855180835260408601915060408160051b870101925083870160005b8281101561086f57878503603f19018452815180516001600160a01b031686528681015160608888018190528151908801819052608080890192600583901b8a0190910191908a019060005b8181101561084c578a8403607f190185528251805180865260005b81811015610825578e81840101518f82890101528e81019050610807565b5060008682018f0152958d0195601f01601f19169094018c019350918b01916001016107ec565b5050506040928301519790920196909652945092850192908501906001016107a0565b5092979650505050505050565b60006020828403121561088e57600080fd5b610897826105ca565b9392505050565b600181811c908216806108b257607f821691505b6020821081036108d257634e487b7160e01b600052602260045260246000fd5b50919050565b601f82111561092257600081815260208120601f850160051c810160208610156108ff5750805b601f850160051c820191505b8181101561091e5782815560010161090b565b5050505b505050565b815167ffffffffffffffff811115610941576109416105e6565b6109558161094f845461089e565b846108d8565b602080601f83116001811461098a57600084156109725750858301515b600019600386901b1c1916600185901b17855561091e565b600085815260208120601f198616915b828110156109b95788860151825594840194600190910190840161099a565b50858210156109d75787850151600019600388901b60f8161c191681555b5050505050600190811b0190555056fea2646970667358221220b3e4b2de64270494dcaa0e06de038995015247315f986124b9120d2df981bc3b64736f6c63430008110033",
  "linkReferences": {},
  "deployedLinkReferences": {}
}