{
  "_format": "hh-sol-artifact-1",
  "contractName": "ZkCreditScore",
  "sourceName": "contracts/ZkCreditScore.sol",
  "abi": [
    {
      "inputs": [],
      "stateMutability": "nonpayable",
      "type": "constructor"
    },
    {
      "anonymous": false,
      "inputs": [
        {
          "indexed": true,
          "internalType": "address",
          "name": "_requester",
          "type": "address"
        },
        {
          "indexed": true,
          "internalType": "uint256",
          "name": "_score",
          "type": "uint256"
        }
      ],
      "name": "LoanRequestCreated",
      "type": "event"
    },
    {
      "anonymous": false,
      "inputs": [
        {
          "indexed": true,
          "internalType": "address",
          "name": "previousOwner",
          "type": "address"
        },
        {
          "indexed": true,
          "internalType": "address",
          "name": "newOwner",
          "type": "address"
        }
      ],
      "name": "OwnershipTransferred",
      "type": "event"
    },
    {
      "inputs": [
        {
          "internalType": "address",
          "name": "requester",
          "type": "address"
        },
        {
          "internalType": "string[]",
          "name": "proofs",
          "type": "string[]"
        },
        {
          "internalType": "uint256",
          "name": "score",
          "type": "uint256"
        }
      ],
      "name": "addLoanRequest",
      "outputs": [],
      "stateMutability": "nonpayable",
      "type": "function"
    },
    {
      "inputs": [],
      "name": "getLoanRequests",
      "outputs": [
        {
          "components": [
            {
              "internalType": "address",
              "name": "requester",
              "type": "address"
            },
            {
              "internalType": "string[]",
              "name": "proofs",
              "type": "string[]"
            },
            {
              "internalType": "uint256",
              "name": "score",
              "type": "uint256"
            },
            {
              "internalType": "uint256",
              "name": "timestamp",
              "type": "uint256"
            }
          ],
          "internalType": "struct ZkCreditScore.LoanRequest[]",
          "name": "",
          "type": "tuple[]"
        }
      ],
      "stateMutability": "view",
      "type": "function"
    },
    {
      "inputs": [
        {
          "internalType": "uint256",
          "name": "",
          "type": "uint256"
        }
      ],
      "name": "loanRequests",
      "outputs": [
        {
          "internalType": "address",
          "name": "requester",
          "type": "address"
        },
        {
          "internalType": "uint256",
          "name": "score",
          "type": "uint256"
        },
        {
          "internalType": "uint256",
          "name": "timestamp",
          "type": "uint256"
        }
      ],
      "stateMutability": "view",
      "type": "function"
    },
    {
      "inputs": [],
      "name": "owner",
      "outputs": [
        {
          "internalType": "address",
          "name": "",
          "type": "address"
        }
      ],
      "stateMutability": "view",
      "type": "function"
    },
    {
      "inputs": [],
      "name": "renounceOwnership",
      "outputs": [],
      "stateMutability": "nonpayable",
      "type": "function"
    },
    {
      "inputs": [
        {
          "internalType": "address",
          "name": "newOwner",
          "type": "address"
        }
      ],
      "name": "transferOwnership",
      "outputs": [],
      "stateMutability": "nonpayable",
      "type": "function"
    }
  ],
  "bytecode": "0x608060405234801561001057600080fd5b5061001a3361001f565b61006f565b600080546001600160a01b038381166001600160a01b0319831681178455604051919092169283917f8be0079c531659141344cd1fd0a4f28419497f9722a3daafe3b4186f6b6457e09190a35050565b610a4b8061007e6000396000f3fe608060405234801561001057600080fd5b50600436106100625760003560e01c80631ae7e43414610067578063715018a61461007c5780638da5cb5b14610084578063d1b332f4146100a4578063e7cc782f146100dc578063f2fde38b146100f1575b600080fd5b61007a610075366004610652565b610104565b005b61007a610267565b6000546040516001600160a01b0390911681526020015b60405180910390f35b6100b76100b2366004610785565b61027b565b604080516001600160a01b03909416845260208401929092529082015260600161009b565b6100e46102b8565b60405161009b919061079e565b61007a6100ff3660046108aa565b61040f565b61010c610488565b620f42408111156101645760405162461bcd60e51b815260206004820152601c60248201527f53636f726520697320626967676572207468616e20313030303030300000000060448201526064015b60405180910390fd5b60405181906001600160a01b038516907fe5d7988e6522eed92cb682f9eae911a6cc15dbd3cc25f515149aaf2f65c171ea90600090a3604080516080810182526001600160a01b038581168252602080830186815293830185905242606084015260018054808201825560009190915283517fb10e2d527612073b26eecdfd717e6a320cf44b4afac2b0732d9fcbe2b7fa0cf6600490920291820180546001600160a01b03191691909416178355935180519394929361024b937fb10e2d527612073b26eecdfd717e6a320cf44b4afac2b0732d9fcbe2b7fa0cf701929190910190610532565b5060408201518160020155606082015181600301555050505050565b61026f610488565b61027960006104e2565b565b6001818154811061028b57600080fd5b60009182526020909120600490910201805460028201546003909201546001600160a01b03909116925083565b60606001805480602002602001604051908101604052809291908181526020016000905b828210156104065760008481526020808220604080516080810182526004870290920180546001600160a01b03168352600181018054835181870281018701909452808452939591948681019491929084015b828210156103db57838290600052602060002001805461034e906108cc565b80601f016020809104026020016040519081016040528092919081815260200182805461037a906108cc565b80156103c75780601f1061039c576101008083540402835291602001916103c7565b820191906000526020600020905b8154815290600101906020018083116103aa57829003601f168201915b50505050508152602001906001019061032f565b50505050815260200160028201548152602001600382015481525050815260200190600101906102dc565b50505050905090565b610417610488565b6001600160a01b03811661047c5760405162461bcd60e51b815260206004820152602660248201527f4f776e61626c653a206e6577206f776e657220697320746865207a65726f206160448201526564647265737360d01b606482015260840161015b565b610485816104e2565b50565b6000546001600160a01b031633146102795760405162461bcd60e51b815260206004820181905260248201527f4f776e61626c653a2063616c6c6572206973206e6f7420746865206f776e6572604482015260640161015b565b600080546001600160a01b038381166001600160a01b0319831681178455604051919092169283917f8be0079c531659141344cd1fd0a4f28419497f9722a3daafe3b4186f6b6457e09190a35050565b828054828255906000526020600020908101928215610578579160200282015b8281111561057857825182906105689082610955565b5091602001919060010190610552565b50610584929150610588565b5090565b8082111561058457600061059c82826105a5565b50600101610588565b5080546105b1906108cc565b6000825580601f106105c1575050565b601f01602090049060005260206000209081019061048591905b8082111561058457600081556001016105db565b80356001600160a01b038116811461060657600080fd5b919050565b634e487b7160e01b600052604160045260246000fd5b604051601f8201601f1916810167ffffffffffffffff8111828210171561064a5761064a61060b565b604052919050565b60008060006060848603121561066757600080fd5b610670846105ef565b925060208085013567ffffffffffffffff8082111561068e57600080fd5b818701915087601f8301126106a257600080fd5b8135818111156106b4576106b461060b565b8060051b6106c3858201610621565b918252838101850191858101908b8411156106dd57600080fd5b86860192505b8383101561076e578235858111156106fb5760008081fd5b8601603f81018d1361070d5760008081fd5b878101356040878211156107235761072361060b565b610735601f8301601f19168b01610621565b8281528f8284860101111561074a5760008081fd5b828285018c83013760009281018b01929092525083525091860191908601906106e3565b989b989a5050505060409690960135955050505050565b60006020828403121561079757600080fd5b5035919050565b6000602080830181845280855180835260408601915060408160051b870101925083870160005b8281101561089d57878503603f19018452815180516001600160a01b03168652868101516080888801819052815190880181905260a080890192600583901b8a0190910191908a019060005b81811015610871578a8403609f190185528251805180865260005b8181101561084a578e81840101518f82890101528e8101905061082c565b5060008682018f0152958d0195601f01601f19169094018c019350918b0191600101610811565b5050506040838101519089015260609283015192909701919091525092850192908501906001016107c5565b5092979650505050505050565b6000602082840312156108bc57600080fd5b6108c5826105ef565b9392505050565b600181811c908216806108e057607f821691505b60208210810361090057634e487b7160e01b600052602260045260246000fd5b50919050565b601f82111561095057600081815260208120601f850160051c8101602086101561092d5750805b601f850160051c820191505b8181101561094c57828155600101610939565b5050505b505050565b815167ffffffffffffffff81111561096f5761096f61060b565b6109838161097d84546108cc565b84610906565b602080601f8311600181146109b857600084156109a05750858301515b600019600386901b1c1916600185901b17855561094c565b600085815260208120601f198616915b828110156109e7578886015182559484019460019091019084016109c8565b5085821015610a055787850151600019600388901b60f8161c191681555b5050505050600190811b0190555056fea26469706673582212209c19afb8ca3f7c09beeec72ed0b46190fd84f2db757e4b1e3b9400b35459b54a64736f6c63430008110033",
  "linkReferences": {},
  "deployedLinkReferences": {}
}